:020000040800F2
:10000000802000202102000883190008FB1000084E
:100010008119000817060008511E000800000000A2
:10002000000000000000000000000000890100083E
:100030001906000800000000CD0100084D1D000851
:100040003B0200083B0200083B0200083B0200089C
:100050003B0200083B0200083B0200083B0200088C
:100060003B0200083B0200083B0200083B0200087C
:100070003B0200083B0200083B0200083B0200086C
:100080003B0200083B0200083B0200083B0200085C
:100090003B0200083B0200083B0200083B0200084C
:1000A0003B020008D91D00083B0200083B02000883
:1000B0003B0200083B0200083B0200083B0200082C
:1000C0003B0200083B0200083B0200083B0200081C
:1000D0003B0200083B0200083B0200083B0200080C
:1000E0003B0200083B0200083B02000800F002F857
:1000F00000F03AF80AA090E8000C82448344AAF188
:100100000107DA4501D100F02FF8AFF2090EBAE885
:100110000F0013F0010F18BFFB1A43F0010318473B
:100120002889000048890000103A24BF78C878C1A7
:10013000FAD8520724BF30C830C144BF04680C60ED
:10014000704700000023002400250026103A28BF35
:1001500078C1FBD8520728BF30C148BF0B60704739
:100160001FB51FBD10B510BD00F020FA1146FFF7F6
:10017000F7FF03F0FFF900F03EFA03B4FFF7F2FFD8
:1001800003BC00F041FA0000224B19680868B0E88F
:10019000F00F80F30988BFF36F8F4FF0000080F3FA
:1001A00011884EF00D0E70470000000006480068F0
:1001B000006880F3088862B661B6BFF34F8FBFF363
:1001C0006F8F00DF00BF00BF08ED00E0EFF3098094
:1001D000BFF36F8F0F4B1A6820E9F00F106008B55E
:1001E0004FF0500080F31188BFF34F8FBFF36F8F34
:1001F00005F054FB4FF0000080F31188BDE8084083
:1002000019680868B0E8F00F80F30988BFF36F8FB2
:10021000704700BF28000020EFF305807047000002
:100220000948804709480047FEE7FEE7FEE7FEE78A
:10023000FEE7FEE7FEE7FEE7FEE7FEE704480549C6
:10024000054A064B70470000D71D0008ED00000866
:10025000801A002080200020801C0020801C0020AC
:1002600010B54C1084EA530404D54042C1F100019A
:1002700038BF491E1B4204D55242C3F1000338BFA8
:100280005B1E00F0B4F814F0804F04D04042C1F17E
:10029000000138BF491E14F0004F04D05242C3F190
:1002A000000338BF5B1E10BD40EA010310B59B0779
:1002B0000FD1042A0DD310C808C9121F9C42F8D0D0
:1002C00020BA19BA884201D9012010BD4FF0FF3081
:1002D00010BD1AB1D30703D0521C07E0002010BD97
:1002E00010F8013B11F8014B1B1B07D110F8013B23
:1002F00011F8014B1B1B01D1921EF1D1184610BD04
:10030000032A40F2308010F0030C00F0158011F841
:10031000013BBCF1020F624498BF11F801CB00F819
:10032000013B38BF11F8013BA2F1040298BF00F86D
:1003300001CB38BF00F8013B11F0030300F0D98076
:10034000083AC0F0088051F8043B083A51F804CB51
:10035000A0E80810F5E7121D5CBF51F8043B40F817
:10036000043BAFF30080D20724BF11F8013B11F822
:1003700001CB48BF11F8012B24BF00F8013B00F866
:1003800001CB48BF00F8012B704702F0FF0343EA9E
:10039000032242EA024200F0E0B84FF0000200B54A
:1003A000134694469646203922BFA0E80C50A0E898
:1003B0000C50B1F12001BFF4F7AF090728BFA0E846
:1003C0000C5048BF0CC05DF804EB890028BF40F812
:1003D000042B08BF704748BF20F8022B11F0804F54
:1003E00018BF00F8012B704770477047704753EAF9
:1003F000020C00F069802DE9F04B4FF00006002B55
:100400001FBFB3FA83F503FA05F424FA05F65E403C
:1004100012BF1643B2FA82F502FA05F4C5F12005BF
:100420001EBF22FA05FC44EA0C04203556EA044CAF
:100430004FEA144418BF641C4FF000084FF0000945
:10044000904271EB030C39D3002919BFB1FA81F73F
:1004500001FA07F6B0FA80F700FA07F6C7F12007AD
:100460001EBF20FA07FC46EA0C062037B6FBF4FC58
:10047000A7EB0507103F07F01F0BCBF120060CFA86
:100480000BFB2CFA06F644BFB3460026202FA4BF70
:100490005E464FF0000B5BEA060C08BF4FF0010B05
:1004A00019EB0B09ABFB027C48EB0608C01B06FBF3
:1004B00002CC0BFB03CC71EB0C01C1E70B460246EF
:1004C00041464846BDE8F08B13B54FF000004FF0B1
:1004D0000001AFF30080BDE81C40704710B500F08C
:1004E0005DF8006810BD10B5044600F057F80460D0
:1004F00010BD10B5203AC0F00B80B1E81850203A7A
:10050000A0E81850B1E81850A0E81850BFF4F5AFB3
:100510005FEA027C24BFB1E81850A0E8185044BF3D
:1005200018C918C0BDE810405FEA827C24BF51F8AA
:10053000043B40F8043B08BF7047D20728BF31F89E
:10054000023B48BF11F8012B28BF20F8023B48BFEF
:1005500000F8012B70474FF000020429C0F0128010
:1005600010F0030C3FF41BAFCCF1040CBCF1020FF4
:1005700018BF00F8012BA8BF20F8022BA1EB0C013B
:10058000FFF70DBF5FEAC17C24BF00F8012B00F824
:10059000012B48BF00F8012B70470000004870474E
:1005A0001C1A0020004870471C1A00207546FFF7EF
:1005B000F9FFAE4605006946534620F00700854620
:1005C00018B020B5FFF73AFEBDE820404FF0000616
:1005D0004FF000074FF000084FF0000B21F007012B
:1005E000AC46ACE8C009ACE8C009ACE8C009ACE86E
:1005F000C0098D46704710B50446AFF30080204611
:10060000BDE81040FFF7B9BD01491820ABBEFEE7B9
:10061000260002007047FEE77047000070B50446F0
:1006200000F008F90546601C02D004480078044434
:1006300000F000F9401BA042FAD370BD1800002062
:100640002DE9F84FDFF8B8910024A9F1040B2346F7
:100650000F2709F1040AABF1040EC9E00125A540FA
:100660002A40AA427DD1674ED1F804C0ACEB0608FF
:10067000B44532D014DCBCF1030F3AD009DCBCF134
:10068000000F2AD0BCF1010F1CD0BCF1020F31D1F8
:100690001DE0BCF1110F17D0BCF1120F2AD119E0E7
:1006A000B8F5881F19D006DCB8F5803F15D0B8F52D
:1006B000801F1FD111E0B8F5001F0ED0B8F5041F40
:1006C00018D10AE0CB6815E0CB681B1D12E0CB689F
:1006D00008330FE0CB680C330CE08B682BB1012B97
:1006E0004FF0080303D0456104E0042302E00561F4
:1006F00000E00023FF2A01D8064601E000F10406CD
:100700004FEA840501D9A5F12005D6F8008007FA43
:1007100005FC28EA0C0803FA05F548EA0508C6F8BE
:1007200000804D68ED0062D5374DAE6946F0010698
:10073000AE61AD6924F0030605F001050095334D67
:1007400006EB050CDCF80850A607360F07FA06F88A
:1007500025EA0805DFF8B880404503D14FF00008CE
:1007600017E044E0DFF8AC80404502D14FF00108CB
:100770000FE0DFF8A480404502D14FF0020808E006
:10078000DFF89880404502D14FF0030801E04FF0B8
:10079000040808FA06F848EA0508CCF808804D680D
:1007A000D9F80060ED024D4601D5164300E09643AE
:1007B0002E604D68DAF80060AD02554601D516434B
:1007C00000E096432E604D68DBF80060AD035D46A7
:1007D00001D5164300E096432E604D68DEF80060B8
:1007E000ED03754601D5164300E096432E60641C68
:1007F0000D682A46E5407FF431AFBDE8F88F000070
:1008000008040140000011100010024000000140E7
:1008100000080140000C014000100140001401409C
:100820008068084000D0012070470AB1016170471C
:100830000904FBE7014880687047000018000020A9
:1008400002488168027811448160704718000020D6
:10085000074810B5016841F010010160032000F065
:10086000A1F80F2000F006F800F04AF8002010BDB3
:100870000020024030B505461C4887B0816941F42C
:1008800000618161806906A900F40060009001A800
:1008900000F030F900F04EF91549164AB0FBF1F1BD
:1008A0001548491E0260416040F2E7320021C0E96C
:1008B00003218160816100F005FB040012D10E4824
:1008C00000F02EFB04000DD1192000F03DF8102D92
:1008D00007D200222946192000F044F80748056095
:1008E00000E0012407B0204630BD000000100240A7
:1008F00040420F00002C0140F00000201C000020AE
:100900000F4808B5816941F001018161816901F0F9
:1009100001010091C16941F08051C161C0690022AB
:1009200000F0805000900F21901E00F01BF8054849
:10093000416821F0E06141F00071416008BD0000B4
:100940000010024000000140002809DB00F01F02F7
:10095000012191404009800000F1E020C0F8001121
:1009600070470000F0B40E4B1B680C46C3F3022323
:10097000C3F10705042D00D90425191D072901D24B
:10098000002300E0DB1E012606FA05F1491E214086
:1009900099409E40761E16403143F0BC01F06DBA7E
:1009A0000CED00E0064900F0070208684FF6FF036F
:1009B000184040EA0220034A1043086070470000D4
:1009C0000CED00E00000FA052DE9F0470F460500A8
:1009D00061D0434E306800F00700B84209D2306859
:1009E00020F0070038433060306800F00700B8425C
:1009F00051D128683B4C810712D5400703D5606868
:100A000040F4E06060602878000703D5606840F437
:100A1000605060606068A96820F0F0000843606082
:100A20002878C00728D06868012810D021680228DB
:100A300010D0890700292EDA616821F003010143F3
:100A40006160FFF7F7FE804641F288390DE02168CA
:100A50008903EFE78901EDE7FFF7ECFEA0EB080162
:100A6000494502D90320BDE8F0876068696800F055
:100A70000C00B0EB810FEFD1306800F00700B842F6
:100A80000BD9306820F0070038433060306800F040
:100A90000700B84201D00120E5E72878400705D5D6
:100AA0006068E96820F4E060084360602878000727
:100AB00006D56068296920F4605040EAC100606092
:100AC00000F048F86168084AC1F30311515CC8405E
:100AD0000649086006480068FFF7CCFE0020C2E720
:100AE00000200240001002405E7600082400002032
:100AF0001C0000200F2202600C4A536803F003031D
:100B00004360536803F0F0038360536803F4E063C9
:100B1000C36052684FF4E06303EAD2020261044802
:100B2000006800F0070008607047000000100240F5
:100B3000002002400448054900684968044AC1F39E
:100B4000C221515CC84070472400002000100240C0
:100B50006E7600080E4A51680E4801F00C03042B13
:100B600011D0082B0FD10C48C1F38343C903C05CDB
:100B70000AD55168084AC1F34041921E515C054AAA
:100B80005043B0FBF1F07047044948437047000000
:100B90000010024000127A004E76000800093D0065
:100BA0002DE9F84F040070D02078C04DC00749D01F
:100BB0006868C0F38100012807D06868C0F381002D
:100BC000022809D16868C00306D52868800339D592
:100BD00060680028E7D035E06068B0F5803F0BD052
:100BE00010B1B0F5A02F11D0286820F48030286013
:100BF000286820F4802002E0286840F480302860D3
:100C0000606890B1FFF716FE06460AE0286840F4D7
:100C100080202860F0E700BFFFF70CFE801B6428EF
:100C200073D828688003F7D50CE0FFF703FE06466B
:100C300005E000BFFFF7FEFD801B6428F0D82868A0
:100C40008003F7D420789A4E80074FF001094FF0C7
:100C5000000839D5686810F00C0F07D06868C0F339
:100C60008100022809D16868C00306D4286880077B
:100C700014D52069012808D110E02069B0B1C6F868
:100C80000090FFF7D7FD074605E00AE1FFF7D2FD28
:100C9000C01B0228C4D828688007F7D52868616976
:100CA00020F0F80040EAC10028600DE0C6F800809E
:100CB000FFF7C0FD074604E0FFF7BCFDC01B02289C
:100CC00023D828688007F7D4207800072CD57948E6
:100CD000A169D9B1C0F80090FFF7ACFD074604E068
:100CE000FFF7A8FDC01B02280FD8686A8007F7D558
:100CF00071484FF4FA510068B0FBF1F0009000BF6A
:100D00000098411E0091FAD20EE080E0C0F8008009
:100D1000FFF790FD074604E0FFF78CFDC01B02289B
:100D200075D8686A8007F7D42078400760D5E869ED
:100D30000027C00008D4E86940F08050E861E86905
:100D4000012700F0805000905C480168C90513D469
:100D50000168834641F480710160FFF76BFD8246B4
:100D600006E000BFFFF766FDA0EB0A0064284ED83E
:100D7000DBF80000C005F5D5E06801280AD008B10D
:100D8000052813D0286A20F001002862286A20F084
:100D9000040002E0286A40F001002862E06841F2A5
:100DA000883B98B1FFF746FD82460BE0286A40F089
:100DB00004002862EEE700BFFFF73CFDA0EB0A014C
:100DC00059455AD8286A8007F6D50CE0FFF732FD5E
:100DD000824605E0FFF72EFDA0EB0A0159454CD8ED
:100DE000286A8007F6D41FB1E86920F08050E861D6
:100DF000E06988B36968C1F38101022944D00228FF
:100E0000C6F8608004D0FFF715FD044638E034E0F2
:100E1000FFF710FD074604E0FFF70CFDC01B02289A
:100E20002BD828688001F7D4206AB0F5803F05D11F
:100E30006868A16820F4003008436860D4E90801BC
:100E40000843696821F4741108436860C6F860902B
:100E5000FFF7F0FC044606E025E000BFFFF7EAFCE0
:100E6000001B022809D828688001F7D51BE000BFC5
:100E7000FFF7E0FC001B022802D90320BDE8F88F31
:100E800028688001F4D40EE00128F7D06868226A4F
:100E900000F48031914204D1616A00F470108842FC
:100EA00001D00120EAE70020E8E70000001002403E
:100EB00000004242800442422400002000700040B2
:100EC0007047704710B5040003D094F83D0010B18E
:100ED00007E0012010BD002084F83C00204600F00F
:100EE0001EF8022084F83D00211D206800F07AFFE2
:100EF000012084F8460084F83E0084F83F0084F81E
:100F0000400084F8410084F8420084F8430084F8EB
:100F1000440084F8450084F83D00002010BD70476F
:100F200090F83D10012901D001207047022180F87E
:100F30003D100168CA6842F00102CA6000680B49AE
:100F4000884208D0B0F1804F05D00949884202D0CC
:100F50000849884204D1816801F00701062903D0BD
:100F6000016841F00101016000207047002C014040
:100F70000004004000080040704770B50446006857
:100F800001694FF00005C943890715D4C168C943F9
:100F9000890711D4E91E016101202077206880694A
:100FA0008007204602D0FFF7E7FF04E000F098F842
:100FB000204600F096F8257720680169C943490763
:100FC00017D4C168C943490713D46FF00401016104
:100FD000022020772068806910F4407F204602D0EC
:100FE000FFF7CAFF04E000F07BF8204600F079F834
:100FF000257720680169C943090716D4C168C94328
:10100000090712D46FF008010161042020772068DD
:10101000C0698007204602D0FFF7AEFF04E000F071
:101020005FF8204600F05DF8257720680169C94324
:10103000C90617D4C168C943C90613D46FF010019B
:101040000161082020772068C06910F4407F2046A5
:1010500002D0FFF791FF04E000F042F8204600F0D4
:1010600040F8257720680169C943C90708D1C168DC
:10107000C943C90704D1891E0161204600F032F836
:1010800020680169C943090609D4C168C943090632
:1010900005D46FF0800101612046FFF711FF206841
:1010A0000169C943490609D4C168C943490605D441
:1010B0006FF040010161204600F01EF820680169D0
:1010C000C94389060BD4C168C943890607D46FF0A8
:1010D000200101612046BDE87040FFF7F2BE70BDFF
:1010E0007047704700680349884201D1FFF7A8BBE9
:1010F00070470000002C01407047FEE770B5104DAE
:101100004FF40074002221462846FFF78EFB00F0C2
:1011100019F80122160231462846FFF786FB00F037
:1011200011F8002231462846FFF77FFB00F00AF84D
:1011300021462846BDE870400122FFF776BB00003B
:10114000000C01400020401C10F0FF00FBD0704755
:101150000C4800B5816985B041F008018161806962
:10116000694600F0080004904FF44070009003209E
:101170000390112001900448FFF762FA00F0AAF8EA
:1011800005B000BD00100240000C014070B50C4CD1
:10119000012251022046FFF748FBFFF7D3FF01224F
:1011A000150229462046FFF740FBFFF7CBFF002240
:1011B00029462046FFF739FBBDE87040FFF7C2BF64
:1011C000000C01402DE9F0470024164E80462546CC
:1011D0004FF400794FF480776006040E01223946FF
:1011E0003046FFF722FBFFF7ADFF49463046FFF7D9
:1011F00017FB08B1641CE4B2002239463046FFF701
:1012000014FBFFF79FFF6D1CEDB2082DE4D3B8F17E
:10121000000F04D0FFF772FF2046BDE8F087FFF70C
:10122000B5FFF9E7000C01402DE9F041174E0546E6
:1012300000244FF480774FF40078280601D501226E
:1012400000E0002241463046FFF7EFFAFFF77AFF51
:10125000012239463046FFF7E8FAFFF773FF002214
:1012600039463046FFF7E1FA072C04D10122414606
:101270003046FFF7DAFA6806050EFFF763FF641CD5
:10128000E4B2082CD9D3BDE8F0810000000C014085
:1012900070B501220E4D540221462846FFF7C5FACB
:1012A0000122160231462846FFF7BFFAFFF74AFF30
:1012B000002221462846FFF7B8FAFFF743FF002235
:1012C00031462846FFF7B1FABDE87040FFF73ABF54
:1012D000000C014070B50B4D4FF400740022214604
:1012E0002846FFF7A2FA012211022846FFF79DFACD
:1012F000FFF728FF21462846BDE870400122FFF78E
:1013000094BA0000000C014070B50122104D540247
:1013100021462846FFF789FAFFF714FF012216023B
:1013200031462846FFF781FAFFF70CFF2146284691
:10133000FFF776FA08B1012400E0002400223146CC
:101340002846FFF772FAFFF7FDFE204670BD000049
:10135000000C014010B5FFF7FBFE02F013FA08B1D4
:101360000A2010BD782002F029FE10F0FF0F01D0F6
:10137000012010BD782002F037F910F0FF0F01D0E6
:10138000022010BD642002F0D9FD10F0FF0F01D043
:10139000032010BD01F00CFB10F0FF0F01D0042062
:1013A00010BD144802F0B0F801F0C0FC10F0FF0FBF
:1013B00001D0052010BD40F2731001F0D1F910F0FA
:1013C000FF0F01D0062010BD642001F017FC10F0C3
:1013D000FF0F01D0072010BD00F0AAF908B10820C6
:1013E00010BD012002F0D0FC10F0FF00F8D0092061
:1013F00010BD0000CC0000202DE9F04F8DB0044658
:101400000CA906A8CDE900010BAB07AA04A902A804
:1014100001F0D8FA18B101200DB0BDE8F08FBDF889
:101420001800C0057DD5079805F0E0FE6FF01D059A
:10143000294606F0A8F88346089805F0D7FE294605
:1014400006F0A1F88146099805F0D0FE294606F07D
:101450009AF880460A9805F0C9FE294606F093F8E6
:1014600082460121584606F08EF80646414605F0B0
:10147000E9FE05464FF04041484605F0E3FE0746C9
:10148000514605F0DFFE294605F04AFD05F01CFD3A
:1014900000F032FE4FF06632464B05F005FA04F0DC
:1014A000EDFEE0600121404606F06DF841460090F7
:1014B00005F0C8FE05463846494605F0C3FE2946F4
:1014C00005F08CFF4FF07E5105F02AFD05F0FCFC85
:1014D00007460D463046494605F0B4FE06465146DD
:1014E000009805F0AFFE314605F01AFD05F0ECFC62
:1014F0003A462B4601F048F84FF066322D4B05F086
:10150000D3F904F0BBFE51462061084605F09AFE6F
:1015100007464146084605F095FE064649460846F8
:1015200000E044E005F08EFE05465946084605F009
:1015300089FE294605F0F4FC314605F04FFF394697
:1015400005F04CFF05F0C0FC06460D4651465846D6
:1015500005F078FE07464146484605F073FE3946D9
:1015600005F0DEFC012106F00EF805F0ADFC324678
:101570002B4601F009F84FF066320E4B05F094F956
:1015800004F07CFE6061BDF810002080BDF8120000
:101590006080BDF81400A080BDF80800E080BDF8B0
:1015A0000A002081BDF80C006081002034E7022091
:1015B00032E7000066A64C401CB504466B46062286
:1015C0003B21682000F07EF800280BD1BDF8001008
:1015D00049BA2180BDF8021049BA6180BDF80410F3
:1015E00049BAA1801CBD1CB504466B4606224321A6
:1015F000682000F067F800280BD1BDF8001049BA48
:10160000E180BDF8021049BA2181BDF8041049BA41
:1016100061811CBD10B5FFF79BFD80216B2000F0A0
:10162000FBF86420FEF7FAFF00216B2000F0F4F8CD
:10163000032000F0BDF8002000F0B5F8322000F0E3
:10164000D4F80021382000F0E7F800216A2000F0EB
:10165000E3F80121232000F0DFF88021372000F09B
:10166000DBF8752000F011F8682801D0012010BDCA
:1016700001216B2000F0D0F800216C2000F0CCF8A4
:10168000322000F0B2F8002010BD10B50446FFF77C
:10169000FFFDD020FFF7C8FDFFF736FE2046FFF71D
:1016A000C3FDFFF731FEFFF7F3FDD120FFF7BCFDCF
:1016B000FFF72AFE0020FFF785FD0446FFF70AFE2C
:1016C000204610BD2DE9F0411D4614460F46064642
:1016D000FFF7DEFD7006000EFFF7A6FDFFF714FE14
:1016E00020B1FFF7F7FD0120BDE8F0813846FFF794
:1016F0009BFDFFF709FEFFF7CBFD012000EB460045
:10170000C0B2FFF791FDFFF7FFFD09E0012C0DD0FE
:101710005FF00100FFF756FD641E05F8010BE4B20F
:10172000002CF3D1FFF7D6FD0020DDE70020F1E724
:1017300010B58AB005A901A800F026FC032802D044
:1017400001200AB010BD04A801F0D2FF019805F0F5
:101750004DFD04990C4605F075FD05F00BFD01905B
:10176000029805F043FD214605F06CFD05F002FDF1
:101770000290039805F03AFD214605F063FD05F05F
:10178000F9FC039001A801F06BFA08A801F074FFBE
:101790000020ADF8200005900690079005A801F004
:1017A000C1F90020CDE7C006010E1C2000F034B8BE
:1017B000C006010E1B2000F02FB8BC2801D3012168
:1017C00010E0622801D302210CE02A2801D3032172
:1017D00008E0142801D3042104E00A2801D30521DC
:1017E00000E006211A2000F017B810B504464FF4A7
:1017F0007A70844201D9044602E0042C00D2042409
:10180000B0FBF4F0401EC1B2192000F005F86008EA
:10181000BDE81040FFF7D1BF70B50C460546FFF795
:1018200037FDD020FFF700FDFFF76EFD50B92846C9
:10183000FFF7FAFCFFF768FD2046FFF7F5FCFFF71E
:1018400063FD18B1FFF746FD012070BDFFF742FDB3
:10185000002070BD2DE9F0411E4615460F46044696
:10186000FFF716FD6006000EFFF7DEFCFFF74CFDEC
:1018700060B93846FFF7D8FCFFF746FD00240CE0BE
:10188000305DFFF7D1FCFFF73FFD20B1FFF722FDF0
:101890000120BDE8F081641CE4B2AC42F0D3FFF754
:1018A00019FD0020F5E7000010B5074A00210748A0
:1018B00002F060FC064C044A0021206124320548F5
:1018C00002F058FC606110BD04760008E51C0008B9
:1018D00000000020091D00082DE9F04186B0002419
:1018E00024480094019402940394816941F010010A
:1018F0008161816901F010010491816941F0200149
:101900008161816901F020010491816941F0040144
:101910008161816901F004010491816941F008014C
:1019200081618069144F00F008000490002220219A
:101930003846FEF77AFFDFF84480002280214046D7
:10194000FEF773FF202001250226CDE90005CDE931
:10195000024669463846FEF773FE8020CDE9000551
:10196000CDE9024669464046FEF76AFE06B0BDE88C
:10197000F08100000010024000080140000C01400E
:10198000FEE7FEE7144810B5816986B041F0080112
:101990008161816901F008010491816941F00801C8
:1019A000816180690D4C00F00800049011200190C5
:1019B00003200390002002904FF48070009069464D
:1019C0002046FEF73DFE6015009069462046FEF772
:1019D00037FE06B010BD000000100240000C0140B0
:1019E0002DE9F047144E002407464FF080084FF4CD
:1019F0000079B51528FA04F23A4049463046FEF718
:101A000014FF012229463046FEF70FFF0022294627
:101A10003046FEF70AFF641CE4B2082CEAD3012228
:101A200029463046FEF701FF29463046BDE8F0471B
:101A30000022FEF7FABE0000000C014070B5012242
:101A40000B4D540221462846FEF7EFFE01221602F6
:101A500031462846FEF7E9FE002221462846FEF7D9
:101A6000E4FE31462846BDE870400022FEF7DDBEA8
:101A7000000C014070B50A4D4FF40074002221465D
:101A80002846FEF7D2FE012211022846FEF7CDFEBF
:101A900021462846BDE870400122FEF7C6BE000080
:101AA000000C014070B500240021204600F063F8CE
:101AB0000025002000F004F96D1CEDB2802DF8D354
:101AC000641CE4B2082CEFD370BD10B500204FF4B5
:101AD0007A720021491C9142FCD3401C9042F8D3F9
:101AE000FFF750FFAE2000F0DAF8D52000F0D7F86D
:101AF000802000F0D4F8A82000F0D1F83F2000F0BA
:101B0000CEF8D32000F0CBF8002000F0C8F8402039
:101B100000F0C5F8A12000F0C2F8C82000F0BFF81E
:101B2000DA2000F0BCF8122000F0B9F8812000F0B3
:101B3000B6F8CF2000F0B3F8D92000F0B0F8F120CB
:101B400000F0ADF8DB2000F0AAF8302000F0A7F894
:101B5000A42000F0A4F8A62000F0A1F88D2000F049
:101B60009EF8142000F09BF8AF2000F098F8BDE834
:101B70001040FFF797BF10B50C4640F0B00000F0E2
:101B80008EF8102040EA141000F089F804F00F00DD
:101B9000BDE8104000F083B82DE9F0410746CE00C3
:101BA0004000083E801E15464FF0FF38F1B2C0B22B
:101BB000FFF7E1FF1148002400EB05152819A0F5F7
:101BC000805090F8000E00F07BF8641CE4B2082C02
:101BD000F4D308EB4700F1B2C0B2FFF7CCFF00240A
:101BE0002819A0F5805090F8080E00F069F8641CE0
:101BF000E4B2082CF4D3BDE8F0810000767600084A
:101C00002DE9F0471E4614008946824604D42B2253
:101C1000FFF7C2FF274603E02D22FFF7BDFF674213
:101C2000002423E0301B401E04F0D7FD02460B4683
:101C30000020104902F0F0FA05468846384604F0C4
:101C4000E3FD2A46434604F007FC04F099FD0A210F
:101C5000B0FBF1F201FB120209EB0400401CC1B21F
:101C600050463032FFF798FF641CE4B2B442D9D337
:101C7000BDE8F087000024402DE9F04115460E46EE
:101C80000746002406E03019C1B23846FFF784FF4A
:101C9000641CE4B22A5D002AF5D1BDE8F08110B5DC
:101CA0000446FFF7CBFE7820FFF79AFE0020FFF7EF
:101CB00097FE2046FFF794FEBDE81040FFF7DABE1E
:101CC00010B50446FFF7BAFE7820FFF789FE4020E2
:101CD000FFF786FE2046FFF783FEBDE81040FFF7C2
:101CE000C9BE00000748FFF787FB0028FAD1054866
:101CF000FFF762FC0348FFF776FC142002F0E4F9DA
:101D0000F0E70000D80000200F4CE06805F032FA40
:101D10000246032308210220FFF772FF206905F025
:101D200029FA0246032308211846FFF769FF606974
:101D300005F020FA0246032308210420FFF760FF84
:101D4000642002F0C1F9E0E7D800002010B550206F
:101D500080F31188BFF34F8FBFF36F8F04F0ECF85F
:101D600018B104494FF080500860002080F31188BA
:101D700010BD000004ED00E030B58FB028216846AA
:101D8000FEF70BFB14210AA8FEF707FB012108044C
:101D9000CDE900100024029402250491CDE90750FA
:101DA0004FF4E01009906846FEF7FAFE08B172B6EB
:101DB000FEE70F20CDE90A054FF48060CDE90C4025
:101DC00002210AA80E94FEF7FFFD002801D072B68A
:101DD000FEE70FB030BD70470148FFF7CEB80000F6
:101DE000F0000020F0B50268164B174C174D4FF06D
:101DF0008047984205D0B84203D0A04201D0A84203
:101E000003D122F070064A683243984205D0B842A6
:101E100003D0A04201D0A84203D122F44074CA6882
:101E200022434C6922F08002224302608A68C26227
:101E30000A688262984201D1096901630121416106
:101E4000F0BD0000002C01400004004000080040EC
:101E5000FEE7490050EAC12018BF04204A0D18BF10
:101E600040F0010040F2FF72B2EB515F08BF40F05A
:101E70000200012808BF052070470907090E002845
:101E800004DB00F1E02080F80014704700F00F0040
:101E900000F1E02080F8141D70472DE9F0414F1E3D
:101EA00000EBC7010446D1E9000115461E4637F094
:101EB00006020DD02A46334604F0F6FC7F1E04EBE2
:101EC000C703D3E9002304F00BFA37F00602F1D17F
:101ED000022F25D0042F13D0062F18BFBDE8F081A4
:101EE0002A46334604F0E0FCD4E90A2304F0F8F96A
:101EF0002A46334604F0D8FCD4E9082304F0F0F96C
:101F00002A46334604F0D0FCD4E9062304F0E8F96D
:101F10002A46334604F0C8FCD4E9042304F0E0F96F
:101F20002A46334604F0C0FCD4E9022304F0D8F971
:101F30002A46334604F0B8FCD4E90023BDE8F0415A
:101F400004F0CEB9002213461046014904F084BAC9
:101F50000000F03F012205F0E8BA04F0C1B9002208
:101F600013461046114604F077BA40F201320020C1
:101F70004FF0E04105F0D9BA024A0020110705F000
:101F8000D4BA000001FDFFFF2DE9F047394C82462D
:101F90008AB094F824000F4620B1002001F0F4FE2E
:101FA000012600E0002607A801F088FB06A801F042
:101FB00045FB09A801F0BCFB08A801F0D5FB94F88B
:101FC0000A9094F81080002500223946504601F00E
:101FD000A7F810B16D1C022DF6DB022D1AD00025DA
:101FE000012203A9684601F09BF810B16D1C022D77
:101FF000F6DB022D0ED003A9384600F03DF8C7B23B
:102000006946504601F016FA10F0FF0F4FF0000538
:1020100002D002E0002503E001250FB945F00205DA
:10202000FF2020726072E0724FF6FF71E181A072B2
:10203000207401202073BDF81C0001F0E1FE9DF822
:10204000180001F0FFFDBDF8240001F041FFBDF8CC
:10205000200001F073FF484601F0B0FF404601F058
:10206000C3FA16B1012001F08FFE0AB02846BDE880
:10207000F0870000A00000202DE9FE4F07460E4625
:102080000025684600F0F6FF00246FF00F0AE846CE
:102090004FF0010957F8240056F82410401A00D5D3
:1020A000404205F0A3F8514605F06DFA58F82410A7
:1020B00011F0FF4F0BD004F09BFF4FF07E5105F065
:1020C0008DF90A4920F00040884205DC07E0084904
:1020D00008440849884202D309FA04F00543641C05
:1020E000032CD7DB2846BDE8FE8F0000EC51383EBC
:1020F000666666C19A99D9002DE9F04D8D4F21F0A1
:10210000004A86B005460C46BA452ADBAAEB070012
:1021100028430AD08848824501DC1AD1CDB106B0E7
:102120002846BDE8F04DFFF715BF844A844B28468A
:1021300004F0BAFB07460E46824A834B28462146E6
:1021400004F0B2FB06B03A463346BDE8F04D04F069
:10215000C7B80120FEF7C7F906B0BDE8F04DFFF79C
:10216000FEBE7A48824542DABAF1795F0BDA284638
:10217000FFF76FFE042808BFFFF7FEFE284606B0F3
:102180002146BDE8F08D2A460B46104604F08CFB34
:10219000834602466E480E460B4606217844FFF7FA
:1021A0007CFE5A46334604F07FFB804669488A46E7
:1021B0005A46334604217844FFF76FFE5A463346A9
:1021C00004F072FB00223B4604F08AF802460B46FC
:1021D0004046514604F040F92A46234604F064FB89
:1021E00006B02A462346BDE8F04D04F079B82846EB
:1021F00024F0004100223D463B4604F089FC4FF0AC
:10220000FF3205F092F90646024653480F460B4648
:1022100006217844FFF741FE32463B4604F044FB7A
:10222000CDE900014D4832463B4604217844FFF792
:1022300034FE32463B4604F037FB00222B4604F0C6
:102240004FF8834602913046394603F01DF9804627
:1022500043480D46504517DCDDE900015A46029B14
:1022600004F0FAF842462B4604F01EFB42462B4689
:1022700004F036F8012205F058F9304A304B04F0EA
:1022800039FD304A304B4CE04FF0000A52460B46C5
:10229000404604F025F8CDE9031052462B4610467F
:1022A000194604F001FB32463B4604F031FCDDE9FF
:1022B000033204F0D1F806460F46DDE900015A4624
:1022C000029B04F0C9F8834600910122304639464A
:1022D00005F02BF9194A1A4B04F01AFC06460F4672
:1022E00001224046294605F020F95A46009B04F099
:1022F000DBFA32463B4604F0FDFC06460F4601225F
:102300005046294605F011F90E4DDFF858802A464F
:10231000434604F0FDFB32463B4604F0F9FB2A46F7
:10232000434604F0F5FB002CD8BF81F0004106B015
:10233000BDE8F08D0000F03F0000F07F075C143333
:1023400026A6913C182D4454FB21F93F0000E03FA4
:1023500010670000266700009A660000B066000063
:102360003333EF3FFB21E93F2DE9F84F04460D469B
:1023700021F0004000917349814211DC724988428A
:1023800001DC06D12CB120462946BDE8F84FFFF705
:10239000E1BD6E48002DCCBF6D496E49BDE8F88F98
:1023A0006D49814211DD6D498142D8BF4FF0FF3642
:1023B0006DDD20462946FFF74CFD042808BFFFF7D6
:1023C000DBFD20462946BDE8F88F6549654F25F0BD
:1023D0000045814233DD6449814219DD00263246E1
:1023E0004FF080432046294603F07AFF80468A4614
:1023F00001222046294605F098F800223B4604F0C9
:1024000079FC4246534604F027F804460D463EE068
:1024100001260022BA463B462046294603F060FFCB
:1024200080460F46002253462046294604F062FCAF
:1024300042463B4604F010F804460D4627E04B495F
:1024400081421BDDDFF828A10226002253462046E8
:10245000294604F029FA00223B4603F041FF80465A
:102460000F46002253462046294604F043FC4246CC
:102470003B4603F0F1FF04460D4608E003262246E2
:102480002B4600203B4903F0E7FF04460D46224659
:102490002B461046194604F007FA8B468246024640
:1024A0000B4604F001FA07460246334888460B46BD
:1024B00006217844FFF7F1FC52465B4604F0F4F93C
:1024C00082462E488B463A46434605217844FFF71C
:1024D000E4FC3A46434604F0E7F902460B46002E78
:1024E000504659460CDA03F0FBFE22462B4604F018
:1024F000DBF901B022462B46BDE8F04F04F008BBE3
:1025000003F0EEFE22462B4604F0CEF91C4A7A4434
:1025100002EBC603D3E9002304F0ECFB22462B4672
:1025200004F0E8FB174A7A4402EBC603D3E9002320
:1025300004F0EEFA009A002AB8BF81F00041BDE82D
:10254000F88F0000000010440000F07F182D445464
:10255000FB21F93FFB21F9BF0000DC3F0000203EDA
:102560000000F33F0000F03F0000E63F0080034022
:102570000000F83F0000F0BF3A650000F86400007A
:10258000966400005E6400002DE9F04D9446CCF1A5
:10259000000423F000464CEA0404594F46EAD47480
:1025A0009A46884621F00042BC4206D8454240EA9D
:1025B000050442EAD474BC4204D9BDE8F04D624639
:1025C000FFF7CBBCAAF14055A5F17F6555EA0C0495
:1025D0000BD0022404EAAA744A4DDFF82CE144EA45
:1025E000D87452EA000B04D00CE0BDE8F04DFFF7C0
:1025F000BBBE002C14BF012CBDE8F08D022C30D0E6
:10260000032C32D056EA0C0B0AD0BE4220D1BA427B
:1026100009D126F0804622F080423346114617E069
:1026200000291ADB25E0DFF8E4B0FB44002C04BFEE
:10263000DBE90001BDE8F08D012C02BFDBE9000100
:1026400081F00041BDE8F08D022C0AD0032C0CD0A3
:10265000BA4212D1B8F1000F0BDA2A482C49BDE872
:10266000F08D28462B49BDE8F08D28467146BDE81F
:10267000F08D24482849BDE8F08D921B12153C2AA4
:10268000C4BF204F244E10DCBAF1000FBEBF12F1C0
:102690003C0F00273E4608DB624603F0DDFE21F0DA
:1026A0000041FFF761FE07460E4694B1012C08BFBA
:1026B00086F000460DD0194A194B022C3846314697
:1026C00015D004F017FB2A46BDE8F04D114B04F07D
:1026D00011BB002213463846314604F015F804BFFA
:1026E0000220FDF700FF38463146BDE8F08D04F0CA
:1026F00001FB2A46BDE8F04D064B04F009BA000084
:102700000000F07F182D4454FB2109C0F263000043
:10271000FB21F9BFFB210940FB21F93F075C143382
:1027200026A6A13C08B560B120208DF80000282025
:102730008DF8010030208DF8020038208DF803005C
:1027400004E0A32204216846FDF71FFE6A46042127
:1027500040F69E2001F08EFC01F0C4F908BD000097
:102760003EB5044602208DF80000CA208DF8010015
:10277000E3208DF8020009208DF803006A46042149
:10278000682001F077FCA3208DF80000610609D5D0
:10279000C0218DF80110C8218DF80210C2218DF8DA
:1027A000031005E08DF801008DF802008DF803009C
:1027B00014F4C07F09D0C4218DF80410CC218DF809
:1027C0000510C6218DF8061005E08DF804008DF87F
:1027D00005008DF806008DF808008DF807008DF8CB
:1027E00009006A460A2140F6A72001F043FCA00731
:1027F0004FF0D80503D020208DF8000001E08DF8BF
:1028000000506A46012140F6B62001F033FCA006D4
:1028100001D5012000E0002000F08EF814F4C07F04
:102820001ED0E0050AD5B2208DF800008B208DF86F
:102830000100B6208DF802009B2009E0B0208DF841
:10284000000080208DF80100B4208DF80200902057
:102850008DF803006A46042140F6A22001F00AFC2C
:10286000E1074FF40B6022D0F8218DF800106A4682
:10287000012101F0FFFBFA21072000F047FB0720B0
:1028800000F012FB012000F02FFB642000F0D2FBCF
:102890004FF4FA7000F0DEFBC821254800F0CCFAB6
:1028A000282000F0E1FA0A2000F0EEFA05E08DF8A9
:1028B00000506A46012101F0DDFBA00703D5D920B5
:1028C0008DF8000001E08DF800506A46012140F2C9
:1028D0003D7001F0CFFB600701D5012000E0002032
:1028E00000F048F8E00601D5012000E00020FFF7E5
:1028F00019FF104D44F00800688101F0F3F8002042
:10290000A873600601D50620A87314F4C07F02D016
:10291000A87B801DA87314F0140F02D0A87B103080
:10292000A873A00702D0A87B001DA87300203EBD9D
:1029300009E3CA020C1A00200EB54FF4976310B1D8
:1029400006A107C901E008A207CA8DE807006A4688
:102950000921184601F08EFB0EBD0000B8AAB38D08
:10296000B4980D355D000000B8AAAAAAB088C3C506
:10297000C700000008B560B1C0208DF80000C2207B
:102980008DF80100C4208DF80200C6208DF80300E8
:1029900004E08B2204216846FDF7F7FC6A46042117
:1029A00040F6982001F066FB01F09CF808BD00009D
:1029B000C8234FF48062024940F6F63000F074BF3D
:1029C000B87C00082DE9F04F89B01746DDE91252B6
:1029D0000024534E884681462C80A246B07B69462F
:1029E00001F00EF84FF0FF3B18B1584609B0BDE8B2
:1029F000F08F708910F0140F4CD0BDF800109DF8C6
:102A0000022049BA090441EA02239DF803100B434E
:102A10003B60BDF804109DF8062049BA090441EA5C
:102A200002229DF807101B140A437A60BDF80810B3
:102A30009DF80A4049BA090441EA04219DF80B4077
:102A400012142143B960BDF80C409DF80EC064BA61
:102A5000240444EA0C2C9DF80F4009144CEA040CA1
:102A6000C7F80CC04FEA2C475B43494302FB0232D4
:102A700007FB071111441024A1F17061B1F1007F2F
:102A800004D901F02FF8A5F800A0AEE7298841F499
:102A9000807129804206694611D50A19A41D138840
:102AA0005BBAA8F8003053885BBAA8F80230928865
:102AB00052BAA8F804202A8842F008022A8010F4AA
:102AC000C07F11D00A19A41D13885BBAA9F8003081
:102AD00053885BBAA9F80230928852BAA9F8042048
:102AE0002A8842F070022A80800716D00C44E078D1
:102AF00000F0C00500F03F016078C00706D0C808AC
:102B000001F007013268491C02B190476078000764
:102B100003D5716809B1A8098847002066E700005D
:102B20000C1A00202DE9FF41044603A800F0A4FD83
:102B3000BDF80C00410CC3032F48008900F00302CC
:102B400054F82250420700D56D42C0F3C1028606F8
:102B500054F8222000D55242C0F38116C00554F823
:102B6000264000D56442A5FB0367E81700FB03700D
:102B700005FB0100850045EA9670A2FB0367D517A7
:102B800005FB037502FB0152950045EA9672A4FB12
:102B90000367E51705FB037304FB01318B0043EA70
:102BA0009671030E8DF80030030C8DF80130030A86
:102BB0008DF802308DF80300100E8DF80400100C13
:102BC0008DF80500100A8DF80600080E8DF8080033
:102BD000080C8DF80900080A8DF80A008DF8072006
:102BE0008DF80B106A460C214FF4257001F042FA63
:102BF00004B0BDE8F08100000C1A002030B5044696
:102C000013A285B007CA8DE807004FF0FF35C82C26
:102C100016D8C820B0FBF4F1491E080A8DF80C0044
:102C20008DF80D1003AA022140F2162001F022FABD
:102C300030B96A460C2140F6C12001F01BFA10B1F0
:102C4000284605B030BD054884810020F9E7000022
:102C5000FEF2ABC4AAF1DFDFBBAFDFDF0C1A00204E
:102C6000F8B53049098901F0030250F822404A07BB
:102C700000D56442C1F3C1028B0650F8222000D572
:102C80005242C1F3811350F82330C80500D55B428E
:102C9000254984FB0140850045EA947082FB01428E
:102CA000A40F44EA820483FB0121950F45EA8105C4
:102CB000010E8DF80010010C8DF80110010A8DF83D
:102CC00002108DF803006A4604214FF4747001F07D
:102CD000D1F94FF0FF3688B9200E8DF80000200C96
:102CE0008DF80100200A8DF802008DF803406A4635
:102CF00004214FF4757001F0BDF908B13046F8BDFC
:102D0000280E8DF80000280C8DF80100280A8DF897
:102D100002008DF803506A4604214FF4767001F0EA
:102D2000A9F9F8BD0C1A002009E3CA022DE9FF41F8
:102D300004463CA004F00303006802903AA0006837
:102D400003903AA006683AA0056802A8C15C8DF815
:102D50000010C4F3C101425C8DF80120C4F381125C
:102D6000805C8DF8020003A8C35C8DF80430415CE0
:102D70008DF80510805C8DF806006A46032140F24C
:102D8000264001F077F94FF0FF37E0BB01AA03219D
:102D900040F22A4001F06EF9A8BBCDE9006560075A
:102DA0000BD59DF8000040F001008DF800009DF863
:102DB000040040F001008DF80400A0060BD59DF83A
:102DC000010040F001008DF801009DF8050040F081
:102DD00001008DF80500E0050BD59DF8020040F0DC
:102DE00001008DF802009DF8060040F001008DF80A
:102DF00006006A4603214FF4886001F03BF910B9E0
:102E000001AA032100E004E040F2314001F032F970
:102E100018B1384604B0BDE8F081064804810020AE
:102E2000F8E700004CCD6C000CC92C00365676003B
:102E3000264666000C1A00204FF47A7290FBF2F0DE
:102E400008B54843010E8DF80010010C8DF80110F3
:102E5000010A8DF802108DF803006A4604214FF430
:102E6000AE7001F007F908BD0521B0FBF1F008B51F
:102E7000010A8DF800108DF801006A4602214FF416
:102E8000AD7001F0F7F808BD0521B0FBF1F008B511
:102E9000010A8DF800108DF801006A4602214FF4F6
:102EA000AC7001F0E7F808BD08B500218DF80010FE
:102EB000C10702D030218DF80010810705D59DF89B
:102EC000001041F00C018DF80010400705D59DF869
:102ED000000040F003008DF800006A4601214FF425
:102EE000A47001F0C7F808BD08B560B1042800D986
:102EF0000420401E8DF800006A46012140F24F1068
:102F000001F0B8F808BD0120F3E700002DE9FC410D
:102F1000054640074FF0FF367CD0B1F5C86F79D831
:102F2000084604F07BF93E4904F062F8074601A820
:102F300000F084FB9DF80400022806D004280DD080
:102F400008282ED0102865D134E00E21384604F030
:102F50001AFB04F02BF984B2324907E00D21384600
:102F600004F011FB04F022F92F4984B2384604F032
:102F700069F904F01BF9210A8DF8001080B28DF870
:102F80000140010A8DF802108DF80300E8076C4635
:102F900020D0224602214FF4EA7001F06BF8C8BB42
:102FA00011E00C21384604F0EEFA04F0FFF884B288
:102FB0001E49DBE70B21384604F0E5FA04F0F6F889
:102FC00084B21B49D2E7A21C02214FF4927001F097
:102FD00051F8F8B9A8070DD56A4602214FF4EC70F4
:102FE00001F048F8B0B9A21C02214FF4947001F02E
:102FF00041F878B9680710D56A4602214FF4EE709F
:1030000001F038F830B9A21C02214FF4967001F09B
:1030100031F810B13046BDE8FC810020FBE700002C
:1030200000004843000040460000C0450000404505
:103030000000C0440521B0FBF1F008B5010A8DF88D
:1030400000108DF801006A4602214FF4EF7001F084
:1030500011F808BD0521B0FBF1F008B5010A8DF8A3
:1030600000108DF801006A4602214FF4ED7001F066
:1030700001F808BD2DE9FE430646264801AB0422AF
:1030800040680D210078FEF71DFB10B10720BDE858
:10309000FE839DF804101C2000EAD1029DF8071061
:1030A000DFF87490C1F301131A438DF800209DF8E6
:1030B0000520C1F3810300EAD2021A438DF80120F2
:1030C0009DF8062001F0030100EAD2000843002425
:1030D000124F8DF80200A0466D46285D10B146F8EB
:1030E00024900AE046F824800DE000BF56F8240042
:1030F000394604F0A7F846F82400285D401E10F079
:10310000FF002855F2D1641CE4B2032CE5D3002063
:10311000BDE70000A00000207B14AE3E1D5A843F96
:103120002DE9FE4F05460120C14E8DF800004FF0FD
:1031300000088DF8018030680C461746817C706865
:103140006B4602220078FEF785FB4FF0FF3A00281D
:103150007AD1C820FDF762FA8DF8008030686B469E
:103160000122C17B70680078FEF774FB0028EFD164
:1031700030686B460122417970680078FEF76AFB7F
:103180000028E5D130686B460122817C70680078A8
:10319000FEF760FB0028DBD130686B460122C17D61
:1031A00070680078FEF756FB0028D1D130686B4676
:1031B0000122017970680078FEF74CFB0028C7D126
:1031C0004FF00C098DF8009030686B4601220179B0
:1031D00070680078FEF73EFB002835D10F20FDF720
:1031E0001DFAB06A6B460122407A8DF80000306803
:1031F000817870680078FEF72DFB002824D1B06A32
:103200006B460122007A8DF80000306841787068C2
:103210000078FEF71FFB002873D1B06A807A0FB1E7
:1032200040F0E0008DF8000030686B4601228179A3
:1032300070680078FEF70EFB002862D12FB1B06AEB
:10324000C07A40F0E00001E04AE018208DF800006C
:1032500030686B460122C17970680078FEF7FAFA8F
:10326000F0BB17B1C820FDF7D9F940208DF8000058
:1032700030686B460122017970680078FEF7EAFA3F
:1032800070BB78208DF8000030686B4601224179D0
:1032900070680078FEF7DEFA10BB3220FDF7BEF949
:1032A0008DF80080306847466B464179706801228E
:1032B0000078FEF7CFFA98B931687068B046897A1D
:1032C00000786B460222FEF7FDF948B9BDF8000010
:1032D000AF6040BAB0FBF9F06F60C6B22F6000E09B
:1032E0000FE0A76067602760002739E0D8F800107A
:1032F000D8F804006B46C97A00780C22FEF7E2F990
:1033000010B15046BDE8FE8FBDF80000236840BAFA
:1033100000B2BDF80210BDF804201844206049BA7C
:10332000606809B20844606052BAA06812B21044E2
:10333000A060BDF806002B6840BA01B2BDF80800D5
:10334000BDF80A201944296040BA696800B20844EF
:10335000686052BAA86812B210447F1CFFB2A8601D
:10336000B742C3D328688322C117090441EA104138
:1033700000040023FCF774FF32460023FCF770FFC3
:10338000286068688322C117090441EA10410004DB
:103390000023FCF765FF32460023FCF761FF6860FD
:1033A000A8688322C117090441EA104100040023E0
:1033B000FCF756FF32460023FCF752FFA860206856
:1033C0004FF40065C117090441EA104100042A4680
:1033D0000023FCF745FF32460023FCF741FF206045
:1033E00060682A46C117090441EA1041000400231D
:1033F000FCF736FF32460023FCF732FF6060A0681E
:103400002A46C117090441EA104100040023FCF7D1
:1034100027FF32460023FCF723FFA060002802DDCF
:10342000A0F5803001E000F58030A060002069E761
:10343000A00000202DE9F84F81462E48884600253F
:1034400040686B46032200780D21FEF73BF910B16E
:103450000720BDE8F88F9DF80000002400F01F0051
:103460008DF800009DF801006FF00F0B00F01F00B9
:103470008DF801009DF802006E4600F01F008DF8E7
:1034800002004FF0010A00BF59F8241058F8240038
:10349000081A00D5404203F0A9FE594604F073F81B
:1034A0000746305DC0B1144802E0144903F0CAFE7B
:1034B000315D491E11F0FF013155F6D10146384604
:1034C00003F096FD4FF07E5103F088FF0C4920F089
:1034D0000040884205DC07E00A483844B0F1D97F53
:1034E00002D90AFA04F00543641C032CCCDB2846FD
:1034F000AFE70000A00000200000C84154E3853F72
:10350000EC51383E0000E0BE00B5024600F00DF878
:103510000346D01C00F009F843EAC003901D00F0F8
:1035200004F843EA801080B200BD90F90010002931
:1035300002DD4FF00000704702DA4FF004007047E0
:1035400090F90110002902DD4FF00100704702DA06
:103550004FF00500704790F90200002802DD4FF09F
:103560000200704702DA4FF0060070474FF0070084
:1035700070470000FDF76CF9FEF7FEFBFEF7ACF9B3
:10358000FDF7E6FDFEF7A1FAFEF78CFAFEF742F82A
:103590004FF4FA742046FDF741F8FDF7DBFE2046B4
:1035A000FDF73CF80AA201210220FEF765FB0AA202
:1035B00001210320FEF760FB09A201210420FEF790
:1035C0005BFB00F09BFDFEF76FF900F0B3FDFEE73B
:1035D00070697463683A0000726F6C6C3A000000A6
:1035E0007961773A000000002DE9F041124C20F09B
:1035F0000101002594F8240010B10020BDE8F081FD
:10360000A07A4FF0FF3668B10840277C20748842CA
:1036100000D0354641B1012001F00AFF00F062FA06
:1036200038B127743046E9E7207D00B1012001F070
:10363000FFFE2846E2E70000A00000200D494A7A7C
:1036400042B1012A08D0022A0FD0032A0FD04FF02E
:10365000FF307047022200E004220270C97C11B1E1
:103660001106C90D0170002070470822F5E71022ED
:10367000F3E70000A00000200F494A7A42B1012A76
:1036800009D0022A11D0032A12D04FF0FF30704720
:103690004FF4804201E041F69C720280C97C11B176
:1036A000C2F34E010180002070474FF48052F4E7CE
:1036B0004FF40062F1E70000A00000200B49097AF6
:1036C00039B1012907D002290AD003290BD00021E2
:1036D00003E0FA2101E04FF4FA7101800020704705
:1036E0004FF47A71F9E74FF4FA61F6E7A000002091
:1036F0000A49097A41B1012908D002290AD00329CF
:103700000AD04FF0FF307047054900E005490160DD
:10371000002070470449FAE70449F8E7A0000020B8
:1037200000000343000083423333034233338341B9
:103730000C49C97A072913D2DFE801F01204060AFE
:103740000C0E1000BC2100E06221018000207047B7
:103750002A21FAE71421F8E70A21F6E70521F4E720
:103760000021F2E7A0000020054991F8242012B1C1
:103770004FF0FF307047C98901800020704700007A
:10378000A00000202DE9FC41464C80208DF800006F
:1037900020686B460122817C60680078FEF75AF849
:1037A0004FF0FF37002875D16420FCF737FF002564
:1037B0008DF8005020686B460122817C606800789B
:1037C000FEF748F8002865D120686B460622817D07
:1037D00060680078FDF776FF00285BD19DF8050052
:1037E0009DF80310C007400F01F0010140EA4100BD
:1037F0009DF801104FF0010601F00101084304D0CB
:10380000012831D0022810D044E020686B46012204
:10381000C17860680078FDF755FFD8BB9DF80000BF
:1038200010F00F0036D004281ED0E574FF2004F8F5
:103830000A0F4FF6FF7104F8020C04F8010C6070D7
:10384000A180A0712072A67026766576E572A572B9
:10385000E56025616561A576E576A5834FF4FA609C
:1038600000F0CEFAB0B901E0E674DFE7022000F024
:10387000E9F978B92A2000F02BFB58B9322000F082
:103880005DFB38B90020FFF7AFFE18B9002000F04B
:103890000DFA10B13846BDE8FC81002000F08EFB27
:1038A0000020F8E7A00000202DE9FF4FDFF894800A
:1038B000064685B098F8250015460F464FF0FF39AB
:1038C000B0BBAFB3002420E0301B102800DD102077
:1038D00080B283463A1901469246204600F0CAFB60
:1038E00030BB6A465946204600F0D2F800BB50462D
:1038F0005A466946FCF7D8FC20B16FF0010009B0C8
:10390000BDE8F08F04EB0B0084B2B442DCD3280A8C
:103910008DF810008DF81150D8F80000444604AB23
:10392000817ED8F8040002220078FDF793FF08B1E9
:103930004846E4E7012084F825000898E084002048
:10394000DDE70000A00000202DE9F84305464FF018
:10395000FF39282844D80727284C00267DB10120AC
:1039600000F084FA20208DF800004FF00108012DAE
:1039700017D0052D18D88DF8018005201FE00020F4
:1039800000F074FA8DF800608DF8017020686B46C5
:103990000222817C60680078FDF75CFF00BB267521
:1039A00029E08DF80160E8E7142D04D802208DF895
:1039B00001000A2003E003208DF80100142000F02C
:1039C00087FA9DF801006B4607EB80108DF8010027
:1039D00020680222817C60680078FDF73BFF10B10F
:1039E0004846BDE8F8830820A072267384F8148046
:1039F0000020FFF7F9FD0020F3E70000A000002001
:103A00002DE9F843214C0646174694F824008946D0
:103A10004FF0FF3890B3A07A80B320686B46022243
:103A2000817A60680078FDF74DFE38BBBDF8000074
:103A300045BAB54202D2002038701FE06068418864
:103A4000B5EB510F11D9216800786B46497C0122F2
:103A5000FDF738FE90B99DF80000C00605D500F0CE
:103A600041F86FF00100BDE8F8832068F2B24B46E0
:103A7000C17A60680078FDF725FE08B14046F2E79C
:103A8000B5FBF6F0401E38700020ECE7A0000020E7
:103A9000F8B516000D464FF0FF371FD0104CA17A35
:103AA000E1B1010A8DF80010C0B28DF80100411992
:103AB00060684289914211D8216800786B46097E7E
:103AC0000222FDF7C7FE48B92068EAB23346417DBD
:103AD00060680078FDF7F6FD002800D03846F8BD94
:103AE000A0000020F8B5564C4FF0FF36A07A002811
:103AF0007DD000258DF8005020686B460122C17BE7
:103B000060680078FDF7A6FE002870D120686B463B
:103B10000122417960680078FDF79CFE002866D19B
:103B200020686B460122017960680078FDF792FEFB
:103B300000285CD194F82400E0B30C208DF800003C
:103B400020686B460122017960680078FDF782FEEB
:103B5000002872D13220FCF761FDC0208DF80000F2
:103B6000A07AC00702D0E0208DF8000020686B46E4
:103B70000122017960680078FDF76CFE00285CD1B5
:103B8000607C18B102208DF8000001E08DF8005033
:103B900020686B460122C17B60680078FDF75AFE01
:103BA00028BB8DF8005020686B460122417960687F
:103BB00000783EE0FFE704208DF8000020686B46A7
:103BC0000122017960680078FDF744FE78B9A07C95
:103BD00090B9A07AC0070FD05FF060008DF80000A8
:103BE00020686B46012201796068007800E024E0DB
:103BF000FDF730FE08BB01E04020EFE73220FCF784
:103C00000DFD607C18B101208DF8000001E08DF8F9
:103C1000005020686B460122C17B60680078FDF788
:103C200019FE50B92068064B0122417960681033B3
:103C30000078FDF70FFE002800D03046F8BD0000E8
:103C4000A000002038B5184C4FF0FF35A17A19B309
:103C5000022806D0042806D008280ED010281BD130
:103C60000DE0002000E008208DF80000607A9DF84B
:103C70000010B0EBD10F04D005E01020F4E71820BD
:103C8000F2E7002038BD20686B460122C1796068E8
:103C90000078FDF7DFFD08B1284638BD9DF800002B
:103CA000C0086072EDE70000A0000020F8B5354CB8
:103CB0000546A07CA84201D10020F8BD31484FF054
:103CC000FF366B46D0E900104FF001020979007809
:103CD00035B3FDF7F7FC70BB9DF800006B4620F094
:103CE00020008DF8000020680122017960680078CA
:103CF000FDF7B0FDF8B90320FCF790FC02208DF829
:103D0000000094F8220078B382202BE020686B46F4
:103D10000122017D60680078FDF79CFD58B92EE016
:103D2000FDF7D0FC38B9A07AC0079DF8000003D099
:103D300040F0200002E00CE020F020008DF80000B0
:103D400020686B460122017960680078FDF782FDEA
:103D500008B13046F8BD0320FCF760FC94F822005F
:103D600000B180208DF8000094F823000028CDD009
:103D70009DF8000040F030008DF80000C6E7A57403
:103D80009AE70000A000002038B51C4C94F82410DD
:103D900081421DD0002500B394F82500D0B1002049
:103DA00001F046FB0020FFF781FFE08C00F0C6F831
:103DB0008DF8005060686B46012200782321FDF7E2
:103DC00049FD012084F8240001F032FBFFF78AFE50
:103DD000002038BD4FF0FF3038BD002001F028FB37
:103DE000207C8DF8000060686B460122007823215A
:103DF000FDF730FD84F82450E8E70000A000002023
:103E000038B5194C4FF0FF35A17A31B3FA2809D0F3
:103E1000B0F5FA7F08D0B0F57A7F0FD0B0F5FA6F21
:103E20001BD10DE0002000E008208DF80000207A72
:103E30009DF80010B0EBD10F04D005E01020F4E79E
:103E40001820F2E7002038BD20686B4601228179F6
:103E500060680078FDF7FEFC08B1284638BD9DF883
:103E60000000C0082072EDE7A000002038B5174C14
:103E7000054694F82300A84201D1002038BD0DB1B9
:103E8000302000E000208DF80000A07C28B19DF8D3
:103E9000000040F002008DF8000094F8220028B1E4
:103EA0009DF8000040F080008DF8000020686B460F
:103EB0000122017D60680078FDF7CCFC10B14FF065
:103EC000FF3038BD84F82350D7E70000A000002061
:103ED00038B5194C4FF0FF35A17A31B3BC2801D366
:103EE000012010E0622801D302200CE02A2801D32F
:103EF000032008E0142801D3042004E00A2801D399
:103F0000052000E006208DF80000E07A9DF8001002
:103F1000884201D1002038BD20686B46012281789B
:103F200060680078FDF796FC08B1284638BD9DF81A
:103F30000000E072EEE70000A0000020F8B51E4D82
:103F400004464FF0FF37A87A48B395F8240030BBF9
:103F5000287D4FF47A7648B164B1282C03D8E0B2BA
:103F6000FFF7F2FC26E00020FFF7EEFC042C05D260
:103F7000042406E00020FFF7E7FCF9E7B44200D98B
:103F80003446B6FBF4F0401E8DF8000028686B46FE
:103F90000122417868680078FDF75CFC08B138467A
:103FA000F8BD9DF80000401CB6FBF0F0E881400829
:103FB000FFF78EFF0020F8BDA0000020F8B50546F1
:103FC00010F0700F4FF0000601D0012004E015B191
:103FD0008DF8006002E040208DF80000244C6B4614
:103FE00001222068817C60680078FDF733FC4FF087
:103FF000FF3760BB9DF8000020F0400020738DF873
:104000000060680602D404208DF80000A80605D4DC
:104010009DF8000040F002008DF80000E80605D48D
:104020009DF8000040F001008DF80000280705D43D
:104030009DF8000040F038008DF8000020686B46C5
:104040000122C17C60680078FDF704FC10B1A67203
:104050003846F8BD25B1082D02D00020FFF706FF35
:10406000A57226753220FCF7D9FA0020F8BD0000B1
:10407000A0000020F8B516000D464FF0FF371FD006
:10408000104CA17AE1B1010A8DF80010C0B28DF890
:104090000100411960684289914211D82168007875
:1040A0006B46097E0222FDF7D5FB48B92068EAB2CB
:1040B0003346417D60680078FDF7CCFB002800D0D6
:1040C0003846F8BDA000002010B5EFF3058149B9CE
:1040D000EFF3108131B908490968022905D1EFF3DE
:1040E000118111B16FF0050403E0002408B101F063
:1040F00021FB204610BD000078000020EFF3058072
:1041000058B9EFF3108040B909490868022801D076
:1041100030B109E0EFF3118030B16FF00500704766
:1041200001200860002070474FF0FF30704700000A
:104130007800002010B5EFF3058060B9EFF3108030
:1041400048B90B490868022802D0012806D00BE0C4
:10415000EFF3118040B16FF0050010BD0220086040
:1041600001F050FB002010BD4FF0FF3010BD0000EB
:1041700078000020F0B585B04FEA01034FF000044D
:10418000EFF305810394A1BBEFF3108189BB2149B3
:104190000968022902D1EFF3118151BB48B380268F
:1041A00018218DF8104004AD42B3176807B13D46A1
:1041B00097691FB139467F1E382F02D21779FF0742
:1041C00002D0002005B0F0BD576907B1BE08D2F893
:1041D00008C0BCF1000F0DD0D4685C2C18D3126954
:1041E0003AB137B18DE806103246294601F065FE36
:1041F00003900DE0D7685FB912694AB903AACDE907
:104200000012B2B2294601F02BFE012800D003941F
:104210000398D7E7780000202DE9F04D1D460C46A5
:1042200098B0174621F0004123F00043002814BF46
:104230004FF0010C4FF0000C0CEB440CFE4A0CEB61
:1042400002064FEA620C66452BD33E0018BF0126DA
:1042500006EB45061644F94A964222D3F84A53EA39
:10426000070C02D0944205D148B918B0002011467D
:10427000BDE8F08D002808BF4FF0000C01D04FF0D2
:10428000010C0CEB440212F5001F0AD8002F14BFDA
:104290004FF0010C4FF0000C0CEB450212F5001F23
:1042A00007D918B03A462B462146BDE8F04DFDF738
:1042B00054BE0022DFF88CA3002CB8BF534526DA89
:1042C000DFF884C36345A8BF022220DADFF870C399
:1042D0009C451CDCDFF874C30CEB235CBCF1140FB1
:1042E00008DDCCF1340627FA06FC0CFA06F6BE42CD
:1042F0000DD108E05FB9CCF1140623FA06FC0CFAE4
:1043000006F69E4203D10CF00102C2F1020251EA0C
:10431000000C19D1002D17DA002C18BF022A01D089
:10432000012A07D00220FCF7DEF818B0BDE8F04DF6
:10433000FDF708BE0220FCF7D6F8FDF703FE18B023
:1043400081F00041BDE8F08DB7F1000C6CD1534510
:1043500025D104F1804212F5801201BF002800200F
:10436000B74918B008BFBDE8F08DB548884207DCF2
:10437000002DA1BF6046294618B0BDE8F08D07E0CA
:10438000281E05DA80F0004118B06046BDE8F08DC7
:10439000AF497944D1E9000118B0BDE8F08DDFF8EC
:1043A000A0C2634525D1002D1FDA19B1514512D1A4
:1043B000D8B909E0002840F0EC82A24A214618B0A2
:1043C00062F31E01BDE8F08D0020214618B060F3B5
:1043D0001E01BDE8F08D08DA18B02346BDE8F04DA7
:1043E00002460020614602F037B818B02146BDE809
:1043F000F08D514518DAB5F1804F0DD0A5F1005C74
:10440000BCF1FF5C10D1B4F1000C0DDB18B06146BB
:10441000BDE8F04D01F038B8234618B00246BDE8BB
:10442000F04D194602F040BA060024F0004C3BD192
:10443000D9B1514533D1002C06DD002DA1BF00209C
:10444000514618B0BDE8F08D002C01DD002D1BDBBE
:10445000002C13DA002D11DB012A4FF0000014BFED
:1044600078497C4918B0BDE8F08D022A18BF002CAD
:104470000AD0012A08D1002C06DA0AE0002CB8BFC5
:10448000002D11DA012A04D0002018B00146BDE841
:10449000F08D18B000204FF00041BDE8F08DA1F183
:1044A0004050B0F17F601AD0012000EBE47050EA78
:1044B000020421D0624C521E4FF0000B104304BF87
:1044C0004FF0000B644C654883427CDD644A6548CC
:1044D00093421FDD884217DB002D25DB37E0002CDF
:1044E00000DA4AB1022A0CBF01204FF0FF3018B0A9
:1044F000BDE8F04D02F071B90120FBF7F4FF18B0F0
:10450000BDE8F04DFDF72BBD4D4A8A4202DC002D7F
:104510000ADC1CE0814202DA002D18DA04E0484B84
:10452000994220DD002D12DD0220FBF7DCFFFDF7B4
:104530001CFD05460E46002253465846214602F011
:10454000B3F918B066F31E012846BDE8F08D0220CD
:10455000FBF7C9FFFDF710FD0A46214618B062F3CC
:104560001E01BDE8F08D00223046614602F0C2FB1C
:1045700080460E466FF0010202F0D7FF4FF0553231
:10458000394B02F0C5FA4246334602F08DF900225B
:10459000364B02F0BDFA824642463346049110463D
:1045A000194602F081F95246049B02F07DF98A46D1
:1045B00000904FF0C0422E4B4046314602F074F955
:1045C0002C4A2B4B00E027E0CDE90601514600982C
:1045D00002F06AF982460191274A284B404631464B
:1045E00002F062F95246019B02F084FB82460B46C0
:1045F00002460591DDE9060101F072FEDDE90623C0
:1046000000268846304602F075FB5246059B02F0B4
:104610007FFA024600F07EB90020B1F5801F07DA6C
:1046200035223046614602F080FF06466FF03400C6
:1046300000EB215024E00000FFFF1F00FFFF0F00F0
:104640000000F03F0000F07F0000404301FCFFFF4E
:104650008A4600000000F0FF0000F0BF0000E041CB
:104660000000F043FFFFEF3F5555D53F0000E03F0E
:104670004715F73FFE822B6544DF5DF80BAE543ED5
:10468000A0F2FF300190C1F3130040F07F6141F0D0
:1046900040510291FE498842D8BF002004DDFD4907
:1046A0008142C8BF012001DD0D9008E000200D907F
:1046B0000198401C01900298A0F580100290029988
:1046C000F54878440B910D9900EBC100D0E9002327
:1046D0000F9330460A920B9902F00CFBCDE90601CC
:1046E000DDE90A2130460F9B01F0FAFD02460B4638
:1046F0000020EA4901F0B0FE059102460B46009009
:10470000DDE9060102F0D0F81490E5488A464FF042
:10471000000878440299006812904FF0005040EA77
:1047200061010D980F9B01EB804000F5002109917C
:104730000A9A129802F0DEFA32460B9B02F0E8F970
:104740004246534602F0B0F80646029140465146B2
:10475000099B129A02F0A8F8DDE9062302F0D8F9C5
:104760003246029B02F0C6FA059B009A02F09CF8C2
:104770000091149A049053461046194602F094F89A
:1047800006460246C7480B46029106217844FDF7CB
:1047900084FBCDE90510029B32461046194602F013
:1047A00083F8DDE9053202F07FF8059106465346AD
:1047B00040461946149A01F093FD009B049A02F0BA
:1047C00073F83246059B01F08BFDCDE9051042469A
:1047D00053461046194602F067F80022B24B029188
:1047E0000A9001F07DFDDDE9053201F079FD0E460C
:1047F0004246AD4B404602F07DFA029B0A9A02F017
:1048000079FADDE9053202F083F9424602910A9015
:1048100033461046514602F047F8CDE906015346AB
:10482000149A02990A9802F03FF88A460290334699
:1048300042460099049802F037F85346029A01F074
:104840004FFD82460B4602460591DDE9060101F067
:1048500047FDDDE9062300208846064602F04AFAB5
:104860005246059B02F054F9824609914FF060428E
:104870008E4B3046414602F017F8049006918C4A60
:104880008A4B5046099902F00FF882460291894AF4
:10489000894B3046414602F007F85246029B01F030
:1048A0001FFD864B7B440D9A03EBC203D3E9002323
:1048B00001F016FD0E900791019801F08EFF059111
:1048C000DDE9061382460E9A049801F009FD7C4A40
:1048D0007A440D9B02EBC303D3E9002300930292B9
:1048E00001F0FEFC5246059B01F0FAFC00268846CA
:1048F00052463046059B02F0FDF9009B029A02F0F9
:10490000F9F9069B049A02F0F5F9079B0E9A02F05A
:10491000FFF8024600200B4602903846294601F077
:10492000C3FF824601912B4638461946029A02F08F
:10493000E1F93246434601F0B7FF5246019B01F0D0
:10494000CFFC07468A46324643462946029801F084
:10495000ABFF05460E463A46534601F0C1FC594AA4
:104960008846914221DBA8EB020353EA000210D1F2
:104970002A46334602F0BEF9CDE90401524A534BB0
:104980003846514601F0ACFCDDE9042302F08AF818
:1049900021D20220FBF7A7FDFDF7E7FA0A462146E0
:1049A00018B062F31E01BDE8F08D494B28F00042BB
:1049B0009A4210D3474A08EB020353EA00027FF4FD
:1049C000C6AD2A46334602F095F93A46534602F000
:1049D00069F87FF6BCAD0022019228F000403E4904
:1049E0003E4A01EB2051824223DA481C4FF48011E9
:1049F00021FA00F040443A4AC0F30A517A44394B54
:104A0000A1F2FF31CB4020EA0303C0F3130040F4CE
:104A10008010C1F11401C84012680190B8F1000F74
:104A2000BCBF404201902846314602F063F905467A
:104A30000E462A4633463846514601F051FC4FF0A7
:104A400000084246284B4046059101F02DFFCDE974
:104A50000601264A264B4046059901F025FF0091A4
:104A600002902A4633464046059902F043F93A46F9
:104A7000534602F04DF81F4A1F4B01F015FF009BF3
:104A8000029A01F02DFC0746884602460B4635E0A7
:104A90008E9803007AB60B003A4200000000F03F07
:104AA0000A430000A04100000000084009C7EE3F93
:104AB000FD033ADCF5015B14E02F3EBE78400000B8
:104AC0003C40000000009040FE822B654715973C5B
:104AD00000CC904000346F3F01FCFFFF0000E03F3E
:104AE00020400000FFFF0F00432EE63F396CA80C6A
:104AF000615C20BEEF39FAFE422EE63FDDE9060199
:104B000001F0EEFBDDE9062305460E4602F0F2F861
:104B10003A46434601F0FCFF0F462A4633460090D2
:104B20001046194601F0C0FE824602462E488846CD
:104B30000B4605217844FDF7B0F95246434601F093
:104B4000B3FE2A46334601F0E3FF80468A463B46E1
:104B500028463146009A01F0A7FE3B46009A01F034
:104B6000BFFB0691009000224FF080434046514623
:104B700002F0C0F80F460C90424653462846314694
:104B800001F092FE3B460C9A01F066FC069B009AEF
:104B900002F0B0F82A46334602F0ACF80022134B7C
:104BA00001F0B6FF054601980E4601EB00510815CD
:104BB000002810DC28463146019A02F0B6FCFDF7C9
:104BC00048F9042808BFFDF7D7F928463146019A6D
:104BD00002F0ABFC05460B4618B02A465846214663
:104BE000BDE8F04D01F060BE283E00000000F03F3F
:104BF0002DE9F041134C0F46054666692068001DFB
:104C000000F068FC681C07D137B12168BDE8F041AD
:104C10000D48091D00F0AEBC20683544B542456022
:104C2000216805D2A068BDE8F041091D00F08ABCEA
:104C30006068091D00F086FC206B854200D2256368
:104C4000BDE8F08128000020280600202DE9F04171
:104C5000054600F09BFC2D4C2069401C206120681B
:104C60002B4F10B1E06930B32BE02560206901289B
:104C700027D1002606EB860007EB800000F054FCED
:104C8000761C382EF6D3234800F04EFC2148143011
:104C900000F04AFC1F48283000F046FC1D483C301C
:104CA00000F042FC1B48503000F03EFC19486060A8
:104CB0001430A06005E02068E96AC06A884200D824
:104CC0002560E06A401CE0626864E86AA169884285
:104CD00000D9A06100EB800007EB8000291D00F0E7
:104CE00049FC00F073FCE06900280CD02068E96AF8
:104CF000C06A884207D208494FF080500860BFF36D
:104D00004F8FBFF36F8FBDE8F081000028000020B7
:104D100078010020D805002004ED00E038B500F04F
:104D200035FC104CA068C8B90F4800F0FDFB0E48D8
:104D3000143000F0F9FB0C482060143060600A4B1E
:104D400000202833009003F1500210210A2000F0C7
:104D50002BFEA06010B105A100F0B6FCBDE8384004
:104D600000F034BC640000203C060020546D7251F9
:104D70000000000030B4026C0B46002A0BD0C16862
:104D80001144C1604468A14201D30168C16030BCD4
:104D90001846FBF7B5BA30BC70472DE9F041856B7A
:104DA000174604460026026C82B1C7B1E068FBF7E3
:104DB000A7FAE168206C091AE1602268914202D2E8
:104DC0006168081AE060022F16D017E02068A8B9C1
:104DD000606801F015F90646002060600EE0A068EA
:104DE000FBF78EFA216CA0680844A06061688842D5
:104DF00004D32068A06001E005B16D1E6D1CA563A1
:104E00003046BDE8F08110B5044690F8590058B11D
:104E100001280CD002280FD0502080F31188BFF356
:104E20004F8FBFF36F8FFEE7206B00F0E3FB204650
:104E3000BDE8104000F0DEBB10BD000010484FF48C
:104E40004061420706D0C01D0D4920F00700411AFD
:104E5000C1F540610B4A00230144C2E9000308394F
:104E6000103A21F0070111604B600B600B1AC0E98A
:104E7000001393604FF000405360D0607047000013
:104E80000C0E00208C000020144E154CA6F29C47FE
:104E90004FF08058DFF84C9012E000BF00F076FB36
:104EA000F068C568281D00F015FB2069401E2061D0
:104EB000E068401EE06000F089FB2846FFF7A3FF92
:104EC000E0680028EAD138680128F9D9C9F80080DB
:104ED000BFF34F8FBFF36F8FF2E70000140600207F
:104EE0002800002004ED00E070B51D46049C51B17F
:104EF000C4F80020C4E90F010121204600F088FD1C
:104F000084F84C5070BD2460F4E72DE9F0470E465C
:104F1000DDE909841746824691009946089DA5223D
:104F2000206BFBF732FA6FF00301206B01EB870176
:104F3000084420F00707780707D0502080F3118835
:104F4000BFF34F8FBFF36F8FFEE72218315C82F8FB
:104F50003410315C11B1401C1028F6D3002684F8BF
:104F60004360382D00D33725E562C4E91356201D70
:104F700000F0E5FA04F1180000F0E1FA2461C5F14F
:104F800038006462A061666584F858604A465146FC
:104F9000384600F03BFA2060B8F1000F01D0C8F8A5
:104FA0000040BDE8F087000030B5114900E011462F
:104FB0000A688242FBD34B685C18844203D1406884
:104FC00018444860084643681C18944209D1084CAC
:104FD000103C2468A24209D052681A4442600A6810
:104FE00012680260814200D0086030BD0460F9E7B9
:104FF0008C00002070B5002441600B4D006191428F
:1050000006D8D11A8269914206D2011D686807E06C
:105010009A4203D2994201D3012403E0011D28687A
:1050200000F090FA204670BD6400002010B50446E0
:1050300000F0ACFAA06B28B15FF0000400F0C6FAF3
:10504000204610BD0124F9E730B589B0304D55E058
:105050000498002806DADDE90601059A90470498CD
:1050600000284BDB069C606910B1201D00F032FA6D
:1050700002A800F0B9F8024604980A283ED2DFE8F8
:1050800000F00505053D263705053D260598A16973
:10509000034601442046FFF7ADFF00B3616A204696
:1050A0008847E069012829D1002000900598A1696E
:1050B000002342181946204601F0ACF878B9502078
:1050C00080F31188BFF34F8FBFF36F8FFEE7059812
:1050D000A06128B1811813462046FFF78BFF0DE031
:1050E000502080F31188BFF34F8FBFF36F8FFEE71F
:1050F00094F82C0010B9204600F07CFA002204A994
:10510000A86800F0D7FD0028A2D109B030BD00008A
:10511000640000202DE9FC410F46054600F0B6FB77
:1051200001A800F061F80446019818B100F0E0FF12
:10513000BDE8FC81224EAFB170680068A8B30027BB
:10514000291B3A46B06800F0D3FA00F0D1FF0028DE
:10515000EED11C494FF080500860BFF34F8FBFF372
:105160006F8FE5E7A542EBD800F0C2FF3068274615
:10517000C068C468201D00F0ADF9E069012810D1B5
:10518000A0692B4641193A462046FFF733FF40B14C
:1051900000200346014600902A46204601F03AF8D6
:1051A00020B1616A20468847C2E707E0502080F3BB
:1051B0001188BFF34F8FBFF36F8FFEE70127BFE763
:1051C0006400002004ED00E006484168096829B148
:1051D0004168C968C9684968016370474FF0FF3189
:1051E000FAE700002800002070B5054600F09EFE9A
:1051F000064E04463069844203D200F009F80120CB
:1052000000E0002028602046346170BD640000206A
:10521000F8B5194D1FE0C068C4680668201D00F08D
:1052200059F9616A20468847E069012813D1A069CD
:105230003044B04206D924616060211D286800F026
:1052400081F908E0002003460146009032462046DE
:1052500000F0E0FF38B1286801680029DBD16968F7
:10526000C5E90010F8BD502080F31188BFF34F8FBF
:10527000BFF36F8FFEE7000064000020084840681D
:10528000401C4FF0500080F3118804D0BFF34F8FC3
:10529000BFF36F8FFEE7BFF34F8FBFF36F8FFEE754
:1052A00094000020074C2068016841B1C0680021CB
:1052B000D0F80000FFF72EFFFFF7C6FEF3E701214D
:1052C0000020F7E7640000202DE9F041044600F0DB
:1052D0005DF994F9455004F1240609E0606A48B18B
:1052E000304600F0CDFE08B100F052FA6D1E6DB2EE
:1052F000002DF3DC4FF0FF3684F8456000F066F9CE
:1053000000F044F994F9445004F1100709E02069D1
:1053100048B1384600F0B4FE08B100F039FA6D1E0D
:105320006DB2002DF3DC84F84460BDE8F04100F07C
:105330004DB900002DE9F0410546002700F0A6FA1E
:10534000314E306808B9FFF779FDF06805424BD15E
:10535000C5B3083568070ED005F00700C0F1080096
:105360000544680707D0502080F31188BFF34F8FA2
:10537000BFF36F8FFEE72DB37068854234D82248A3
:10538000103001460C6801E020460C466168A942D5
:1053900002D221680029F7D131688C4224D00768F5
:1053A0002168016060680837411B10290FD9601916
:1053B000420708D0502080F31188BFF34F8FBFF30E
:1053C0006F8FFEE710E041606560FFF7EDFD6168FB
:1053D0007068401A7060B268904200D2B060F068A5
:1053E00001430020C4E9000100F082FE780707D0E5
:1053F000502080F31188BFF34F8FBFF36F8FFEE70C
:105400003846BDE8F08100007C00002010B5031F85
:105410004FF080741C601B1F21F001011960191FDF
:10542000024B0B60143940380A6010BD7D520008F1
:10543000F8B5144C0146224694F82460D2E90002E3
:1054400000235D1E56B179B1022111E0C17B1078B5
:105450006B460122FCF7FEF968B90EE0A67A56B158
:1054600011B1617C61B902E08DF80030EEE70121F5
:105470008DF80010EAE72846F8BD9DF8000060743A
:105480000020F8BDA00000202DE9F04106460F469F
:1054900001F04AFB041E0D4618BF0120284320F0EE
:1054A0000040C0F17F6000F1E040C00F0ED0301C22
:1054B00018BF0120384320F00040C0F17F6000F1A8
:1054C000E040C00F04BF0120FBF70DF8204629463D
:1054D000BDE8F081D0E9013201699A60D0E9012389
:1054E0005A604A68824201D182684A6000220261A1
:1054F0000868401E0860086870470000034B03609E
:1055000003F15C00086080201060704754070020A1
:10551000044B036003F15C0008604FF4807010607E
:1055200070470000B009002000F108014FF0FF3281
:10553000C0E90112C16001610021016070470021D2
:105540000161704730B50B685A1C02D000F10802A7
:1055500002E0026904E02246546825689D42FAD9B7
:1055600053684B6099608A60516008610168491C0A
:10557000016030BD42684A6093688B6093685960EF
:10558000916008610168491C01607047502080F3F8
:105590001188BFF34F8FBFF36F8F0A494868401CD3
:1055A000486001280CD10848006810F0FF0F07D0B0
:1055B000502080F31188BFF34F8FBFF36F8FFEE74A
:1055C000704700009400002004ED00E0084948689E
:1055D00028B1401E486001D180F3118870475020E7
:1055E00080F31188BFF34F8FBFF36F8FFEE700008A
:1055F0009400002070B5002827D0144DA0F10804B5
:105600006168E868014207D1502080F31188BFF338
:105610004F8FBFF36F8FFEE722683AB1502080F3BF
:105620001188BFF34F8FBFF36F8FFEE78143616037
:1056300000F02CF960686968084468602046FFF74C
:10564000B3FCBDE8704000F053BD70BD7C0000208D
:105650004FF0E02000210161816105494FF47A7229
:105660000968B1FBF2F1491E4161072101617047F0
:105670002400002010B5FAF7CFFD114910280ED3F1
:1056800000F1E02090F8F0030A78904207D2502011
:1056900080F31188BFF34F8FBFF36F8FFEE7094888
:1056A0000068896800F4E060884207D9502080F3E0
:1056B0001188BFF34F8FBFF36F8FFEE710BD00005F
:1056C000940000200CED00E010B5084B002200BF54
:1056D00053F832401CB1521C082AF9D310BD43F8CC
:1056E000321003EBC201486010BD000038010020F9
:1056F00070B515460E460446FFF748FF94F944106E
:105700000020491C01D184F8440094F94510491C3B
:1057100001D184F84500FFF759FFA06B28B92A464C
:10572000314604F1240000F051F82046BDE87040F5
:10573000FFF7CABD10B5020014D00F48806B38B116
:10574000502080F31188BFF34F8FBFF36F8FFEE7B8
:1057500000F09CF800211046FFF74AFA00F0C8FC60
:10576000002807D105494FF080500860BFF34F8FE4
:10577000BFF36F8F10BD00002800002004ED00E093
:1057800002498A6A02604969416070472800002026
:1057900001490120486270472800002010B50C46DE
:1057A00050B1094909681831FFF7CCFE2046BDE821
:1057B00010400121FFF71CBA502080F31188BFF37D
:1057C0004F8FBFF36F8FFEE72800002070B514469F
:1057D0000D4668B10A4909681831FFF7CBFE0CB1D4
:1057E0004FF0FF3521462846BDE87040FFF700BA6C
:1057F000502080F31188BFF34F8FBFF36F8FFEE708
:105800002800002030B587B00024039405AA04A91D
:1058100003A80494FFF772FEDDE903010094CDE9CB
:105820000110002315A11748059A00F046FB164DFC
:10583000002868631FD000F0BDFC012809D0401C7F
:1058400019D1502080F31188BFF34F8FBFF36F8FB2
:10585000FEE7502080F31188BFF34F8FBFF36F8FA7
:105860004FF0FF3028630120E8616C6107B0BDE8AC
:10587000304000F045B807B030BD000049444C4509
:1058800000000000894E0008280000200248816BBB
:10589000491C81637047000028000020164810B59D
:1058A000816B11B10121416210BD0021416281690A
:1058B000124A01E0B9B1491E01EB810352F82330CD
:1058C000002BF7D001EB810302EB830202F1080405
:1058D00053685B685360A34201D15B685360DA6828
:1058E0000260816110BD502080F31188BFF34F8F9B
:1058F000BFF36F8FFEE70000280000207801002032
:105900001CB5264908780190FF20087008788DF8AA
:1059100000009DF800009DF8002000F0F00090428B
:1059200007D0502080F31188BFF34F8FBFF36F8FE4
:10593000FEE79DF800001A4B00F050001870072099
:10594000986005E09DF8002052008DF80020401E70
:105950009DF800201206F5D49860032807D0502047
:1059600080F31188BFF34F8FBFF36F8FFEE74FF4C3
:1059700040709860019808700A48016841F470010D
:105980000160016841F070410160FFF761FE002095
:105990005860FAF70BFC00201CBD000000E400E09A
:1059A0009400002020ED00E038B5049D18B153B1FB
:1059B000CAB181B120E0502080F31188BFF34F8F2E
:1059C000BFF36F8FFEE7502080F31188BFF34F8F36
:1059D000BFF36F8FFEE7502080F31188BFF34F8F26
:1059E000BFF36F8FFEE739B1502080F31188BFF30A
:1059F0004F8FBFF36F8FFEE750241C46012384F8BE
:105A000046302B460094FFF76FFA204638BD000061
:105A100070B50D46040025D0FFF7B8FDD4E90F207E
:105A2000216802FB001161600021A1632168A1606F
:105A30000A46D4E90F01401E00FB0121E160214626
:105A40004FF0FF3001F8440F487004F110008DB1A1
:105A5000FFF76AFD04F12400FFF766FDFFF7B6FDCE
:105A6000012070BD502080F31188BFF34F8FBFF32A
:105A70006F8FFEE721690029F0D000F001FB0028BC
:105A8000ECD004494FF080500860BFF34F8FBFF354
:105A90006F8FE3E704ED00E02DE9FF4782B01D467C
:105AA0008A464FF00008040003D0BAF1000F08D076
:105AB00011E0502080F31188BFF34F8FBFF36F8F39
:105AC000FEE7206C38B1502080F31188BFF34F8F70
:105AD000BFF36F8FFEE7022D0AD1E06B012807D0DC
